{
  "_format": "hh-sol-artifact-1",
  "contractName": "DEX",
  "sourceName": "contracts/DEX.sol",
  "abi": [
    {
      "inputs": [
        {
          "internalType": "address",
          "name": "_tokenA",
          "type": "address"
        },
        {
          "internalType": "address",
          "name": "_tokenB",
          "type": "address"
        }
      ],
      "stateMutability": "nonpayable",
      "type": "constructor"
    },
    {
      "anonymous": false,
      "inputs": [
        {
          "indexed": true,
          "internalType": "address",
          "name": "provider",
          "type": "address"
        },
        {
          "indexed": false,
          "internalType": "uint256",
          "name": "amountA",
          "type": "uint256"
        },
        {
          "indexed": false,
          "internalType": "uint256",
          "name": "amountB",
          "type": "uint256"
        },
        {
          "indexed": false,
          "internalType": "uint256",
          "name": "liquidityMinted",
          "type": "uint256"
        }
      ],
      "name": "LiquidityAdded",
      "type": "event"
    },
    {
      "anonymous": false,
      "inputs": [
        {
          "indexed": true,
          "internalType": "address",
          "name": "provider",
          "type": "address"
        },
        {
          "indexed": false,
          "internalType": "uint256",
          "name": "amountA",
          "type": "uint256"
        },
        {
          "indexed": false,
          "internalType": "uint256",
          "name": "amountB",
          "type": "uint256"
        },
        {
          "indexed": false,
          "internalType": "uint256",
          "name": "liquidityBurned",
          "type": "uint256"
        }
      ],
      "name": "LiquidityRemoved",
      "type": "event"
    },
    {
      "anonymous": false,
      "inputs": [
        {
          "indexed": true,
          "internalType": "address",
          "name": "trader",
          "type": "address"
        },
        {
          "indexed": true,
          "internalType": "address",
          "name": "tokenIn",
          "type": "address"
        },
        {
          "indexed": true,
          "internalType": "address",
          "name": "tokenOut",
          "type": "address"
        },
        {
          "indexed": false,
          "internalType": "uint256",
          "name": "amountIn",
          "type": "uint256"
        },
        {
          "indexed": false,
          "internalType": "uint256",
          "name": "amountOut",
          "type": "uint256"
        }
      ],
      "name": "Swap",
      "type": "event"
    },
    {
      "inputs": [
        {
          "internalType": "uint256",
          "name": "amountA",
          "type": "uint256"
        },
        {
          "internalType": "uint256",
          "name": "amountB",
          "type": "uint256"
        }
      ],
      "name": "addLiquidity",
      "outputs": [
        {
          "internalType": "uint256",
          "name": "liquidityMinted",
          "type": "uint256"
        }
      ],
      "stateMutability": "nonpayable",
      "type": "function"
    },
    {
      "inputs": [
        {
          "internalType": "uint256",
          "name": "amountIn",
          "type": "uint256"
        },
        {
          "internalType": "uint256",
          "name": "reserveIn",
          "type": "uint256"
        },
        {
          "internalType": "uint256",
          "name": "reserveOut",
          "type": "uint256"
        }
      ],
      "name": "getAmountOut",
      "outputs": [
        {
          "internalType": "uint256",
          "name": "amountOut",
          "type": "uint256"
        }
      ],
      "stateMutability": "pure",
      "type": "function"
    },
    {
      "inputs": [],
      "name": "getPrice",
      "outputs": [
        {
          "internalType": "uint256",
          "name": "price",
          "type": "uint256"
        }
      ],
      "stateMutability": "view",
      "type": "function"
    },
    {
      "inputs": [],
      "name": "getReserves",
      "outputs": [
        {
          "internalType": "uint256",
          "name": "_reserveA",
          "type": "uint256"
        },
        {
          "internalType": "uint256",
          "name": "_reserveB",
          "type": "uint256"
        }
      ],
      "stateMutability": "view",
      "type": "function"
    },
    {
      "inputs": [
        {
          "internalType": "address",
          "name": "",
          "type": "address"
        }
      ],
      "name": "liquidity",
      "outputs": [
        {
          "internalType": "uint256",
          "name": "",
          "type": "uint256"
        }
      ],
      "stateMutability": "view",
      "type": "function"
    },
    {
      "inputs": [
        {
          "internalType": "uint256",
          "name": "liquidityAmount",
          "type": "uint256"
        }
      ],
      "name": "removeLiquidity",
      "outputs": [
        {
          "internalType": "uint256",
          "name": "amountA",
          "type": "uint256"
        },
        {
          "internalType": "uint256",
          "name": "amountB",
          "type": "uint256"
        }
      ],
      "stateMutability": "nonpayable",
      "type": "function"
    },
    {
      "inputs": [],
      "name": "reserveA",
      "outputs": [
        {
          "internalType": "uint256",
          "name": "",
          "type": "uint256"
        }
      ],
      "stateMutability": "view",
      "type": "function"
    },
    {
      "inputs": [],
      "name": "reserveB",
      "outputs": [
        {
          "internalType": "uint256",
          "name": "",
          "type": "uint256"
        }
      ],
      "stateMutability": "view",
      "type": "function"
    },
    {
      "inputs": [
        {
          "internalType": "uint256",
          "name": "amountAIn",
          "type": "uint256"
        }
      ],
      "name": "swapAForB",
      "outputs": [
        {
          "internalType": "uint256",
          "name": "amountBOut",
          "type": "uint256"
        }
      ],
      "stateMutability": "nonpayable",
      "type": "function"
    },
    {
      "inputs": [
        {
          "internalType": "uint256",
          "name": "amountBIn",
          "type": "uint256"
        }
      ],
      "name": "swapBForA",
      "outputs": [
        {
          "internalType": "uint256",
          "name": "amountAOut",
          "type": "uint256"
        }
      ],
      "stateMutability": "nonpayable",
      "type": "function"
    },
    {
      "inputs": [],
      "name": "tokenA",
      "outputs": [
        {
          "internalType": "address",
          "name": "",
          "type": "address"
        }
      ],
      "stateMutability": "view",
      "type": "function"
    },
    {
      "inputs": [],
      "name": "tokenB",
      "outputs": [
        {
          "internalType": "address",
          "name": "",
          "type": "address"
        }
      ],
      "stateMutability": "view",
      "type": "function"
    },
    {
      "inputs": [],
      "name": "totalLiquidity",
      "outputs": [
        {
          "internalType": "uint256",
          "name": "",
          "type": "uint256"
        }
      ],
      "stateMutability": "view",
      "type": "function"
    }
  ],
  "bytecode": "0x60806040523480156200001157600080fd5b50604051620019483803806200194883398181016040528101906200003791906200012a565b816000806101000a81548173ffffffffffffffffffffffffffffffffffffffff021916908373ffffffffffffffffffffffffffffffffffffffff16021790555080600160006101000a81548173ffffffffffffffffffffffffffffffffffffffff021916908373ffffffffffffffffffffffffffffffffffffffff160217905550505062000171565b600080fd5b600073ffffffffffffffffffffffffffffffffffffffff82169050919050565b6000620000f282620000c5565b9050919050565b6200010481620000e5565b81146200011057600080fd5b50565b6000815190506200012481620000f9565b92915050565b60008060408385031215620001445762000143620000c0565b5b6000620001548582860162000113565b9250506020620001678582860162000113565b9150509250929050565b6117c780620001816000396000f3fe608060405234801561001057600080fd5b50600436106100cf5760003560e01c80635f64b55b1161008c5780639cd441da116100665780639cd441da1461021a578063b8c876b11461024a578063dc5fa6c51461027a578063e619a49814610298576100cf565b80635f64b55b146101ad57806398d5fdca146101cb5780639c8f9f23146101e9576100cf565b806303102091146100d4578063054d50d4146101045780630902f1ac146101345780630fc63d101461015357806315770f921461017157806319e36f3b1461018f575b600080fd5b6100ee60048036038101906100e99190611167565b6102c8565b6040516100fb91906111a3565b60405180910390f35b61011e600480360381019061011991906111be565b610556565b60405161012b91906111a3565b60405180910390f35b61013c6105ae565b60405161014a929190611211565b60405180910390f35b61015b6105bf565b604051610168919061127b565b60405180910390f35b6101796105e3565b60405161018691906111a3565b60405180910390f35b6101976105e9565b6040516101a491906111a3565b60405180910390f35b6101b56105ef565b6040516101c2919061127b565b60405180910390f35b6101d3610615565b6040516101e091906111a3565b60405180910390f35b61020360048036038101906101fe9190611167565b610683565b604051610211929190611211565b60405180910390f35b610234600480360381019061022f9190611296565b61097a565b60405161024191906111a3565b60405180910390f35b610264600480360381019061025f9190611302565b610c8d565b60405161027191906111a3565b60405180910390f35b610282610ca5565b60405161028f91906111a3565b60405180910390f35b6102b260048036038101906102ad9190611167565b610cab565b6040516102bf91906111a3565b60405180910390f35b600080821161030c576040517f08c379a00000000000000000000000000000000000000000000000000000000081526004016103039061138c565b60405180910390fd5b61031b82600254600354610556565b905060008054906101000a900473ffffffffffffffffffffffffffffffffffffffff1673ffffffffffffffffffffffffffffffffffffffff166323b872dd3330856040518463ffffffff1660e01b815260040161037a939291906113ac565b6020604051808303816000875af1158015610399573d6000803e3d6000fd5b505050506040513d601f19601f820116820180604052508101906103bd919061141b565b50600160009054906101000a900473ffffffffffffffffffffffffffffffffffffffff1673ffffffffffffffffffffffffffffffffffffffff1663a9059cbb33836040518363ffffffff1660e01b815260040161041b929190611448565b6020604051808303816000875af115801561043a573d6000803e3d6000fd5b505050506040513d601f19601f8201168201806040525081019061045e919061141b565b50816002600082825461047191906114a0565b92505081905550806003600082825461048a91906114d4565b92505081905550600160009054906101000a900473ffffffffffffffffffffffffffffffffffffffff1673ffffffffffffffffffffffffffffffffffffffff1660008054906101000a900473ffffffffffffffffffffffffffffffffffffffff1673ffffffffffffffffffffffffffffffffffffffff163373ffffffffffffffffffffffffffffffffffffffff167fcd3829a3813dc3cdd188fd3d01dcf3268c16be2fdd2dd21d0665418816e460628585604051610549929190611211565b60405180910390a4919050565b6000806103e5856105679190611508565b9050600083826105779190611508565b90506000826103e88761058a9190611508565b61059491906114a0565b905080826105a29190611579565b93505050509392505050565b600080600254600354915091509091565b60008054906101000a900473ffffffffffffffffffffffffffffffffffffffff1681565b60045481565b60035481565b600160009054906101000a900473ffffffffffffffffffffffffffffffffffffffff1681565b6000806002541161065b576040517f08c379a0000000000000000000000000000000000000000000000000000000008152600401610652906115f6565b60405180910390fd5b600254670de0b6b3a76400006003546106749190611508565b61067e9190611579565b905090565b60008082600560003373ffffffffffffffffffffffffffffffffffffffff1673ffffffffffffffffffffffffffffffffffffffff168152602001908152602001600020541015610708576040517f08c379a00000000000000000000000000000000000000000000000000000000081526004016106ff90611662565b60405180910390fd5b600454600254846107199190611508565b6107239190611579565b9150600454600354846107369190611508565b6107409190611579565b905082600560003373ffffffffffffffffffffffffffffffffffffffff1673ffffffffffffffffffffffffffffffffffffffff168152602001908152602001600020600082825461079191906114d4565b9250508190555082600460008282546107aa91906114d4565b9250508190555081600260008282546107c391906114d4565b9250508190555080600360008282546107dc91906114d4565b9250508190555060008054906101000a900473ffffffffffffffffffffffffffffffffffffffff1673ffffffffffffffffffffffffffffffffffffffff1663a9059cbb33846040518363ffffffff1660e01b815260040161083e929190611448565b6020604051808303816000875af115801561085d573d6000803e3d6000fd5b505050506040513d601f19601f82011682018060405250810190610881919061141b565b50600160009054906101000a900473ffffffffffffffffffffffffffffffffffffffff1673ffffffffffffffffffffffffffffffffffffffff1663a9059cbb33836040518363ffffffff1660e01b81526004016108df929190611448565b6020604051808303816000875af11580156108fe573d6000803e3d6000fd5b505050506040513d601f19601f82011682018060405250810190610922919061141b565b503373ffffffffffffffffffffffffffffffffffffffff167f1dc8bb69df2b8e91fbdcbfcf93d951b3f0000f085a95fe3f7946d6161439245d83838660405161096d93929190611682565b60405180910390a2915091565b6000808311801561098b5750600082115b6109ca576040517f08c379a00000000000000000000000000000000000000000000000000000000081526004016109c190611705565b60405180910390fd5b6000600454036109ef576109e882846109e39190611508565b610f39565b9050610a0d565b60025460045484610a009190611508565b610a0a9190611579565b90505b60008111610a50576040517f08c379a0000000000000000000000000000000000000000000000000000000008152600401610a4790611771565b60405180910390fd5b60008054906101000a900473ffffffffffffffffffffffffffffffffffffffff1673ffffffffffffffffffffffffffffffffffffffff166323b872dd3330866040518463ffffffff1660e01b8152600401610aad939291906113ac565b6020604051808303816000875af1158015610acc573d6000803e3d6000fd5b505050506040513d601f19601f82011682018060405250810190610af0919061141b565b50600160009054906101000a900473ffffffffffffffffffffffffffffffffffffffff1673ffffffffffffffffffffffffffffffffffffffff166323b872dd3330856040518463ffffffff1660e01b8152600401610b50939291906113ac565b6020604051808303816000875af1158015610b6f573d6000803e3d6000fd5b505050506040513d601f19601f82011682018060405250810190610b93919061141b565b508260026000828254610ba691906114a0565b925050819055508160036000828254610bbf91906114a0565b925050819055508060046000828254610bd891906114a0565b9250508190555080600560003373ffffffffffffffffffffffffffffffffffffffff1673ffffffffffffffffffffffffffffffffffffffff1681526020019081526020016000206000828254610c2e91906114a0565b925050819055503373ffffffffffffffffffffffffffffffffffffffff167f64b83944e79c3ce8d4c297411de637c3e102d064677aac0c163976ebdcd6f50e848484604051610c7f93929190611682565b60405180910390a292915050565b60056020528060005260406000206000915090505481565b60025481565b6000808211610cef576040517f08c379a0000000000000000000000000000000000000000000000000000000008152600401610ce69061138c565b60405180910390fd5b610cfe82600354600254610556565b9050600160009054906101000a900473ffffffffffffffffffffffffffffffffffffffff1673ffffffffffffffffffffffffffffffffffffffff166323b872dd3330856040518463ffffffff1660e01b8152600401610d5f939291906113ac565b6020604051808303816000875af1158015610d7e573d6000803e3d6000fd5b505050506040513d601f19601f82011682018060405250810190610da2919061141b565b5060008054906101000a900473ffffffffffffffffffffffffffffffffffffffff1673ffffffffffffffffffffffffffffffffffffffff1663a9059cbb33836040518363ffffffff1660e01b8152600401610dfe929190611448565b6020604051808303816000875af1158015610e1d573d6000803e3d6000fd5b505050506040513d601f19601f82011682018060405250810190610e41919061141b565b508160036000828254610e5491906114a0565b925050819055508060026000828254610e6d91906114d4565b9250508190555060008054906101000a900473ffffffffffffffffffffffffffffffffffffffff1673ffffffffffffffffffffffffffffffffffffffff16600160009054906101000a900473ffffffffffffffffffffffffffffffffffffffff1673ffffffffffffffffffffffffffffffffffffffff163373ffffffffffffffffffffffffffffffffffffffff167fcd3829a3813dc3cdd188fd3d01dcf3268c16be2fdd2dd21d0665418816e460628585604051610f2c929190611211565b60405180910390a4919050565b6000808203610f4b576000905061102d565b60006001610f5884611032565b901c6001901b90506001818481610f7257610f7161154a565b5b048201901c90506001818481610f8b57610f8a61154a565b5b048201901c90506001818481610fa457610fa361154a565b5b048201901c90506001818481610fbd57610fbc61154a565b5b048201901c90506001818481610fd657610fd561154a565b5b048201901c90506001818481610fef57610fee61154a565b5b048201901c905060018184816110085761100761154a565b5b048201901c9050611029818285816110235761102261154a565b5b04611113565b9150505b919050565b600080600090506000608084901c111561105457608083901c92506080810190505b6000604084901c111561106f57604083901c92506040810190505b6000602084901c111561108a57602083901c92506020810190505b6000601084901c11156110a557601083901c92506010810190505b6000600884901c11156110c057600883901c92506008810190505b6000600484901c11156110db57600483901c92506004810190505b6000600284901c11156110f657600283901c92506002810190505b6000600184901c111561110a576001810190505b80915050919050565b60008183106111225781611124565b825b905092915050565b600080fd5b6000819050919050565b61114481611131565b811461114f57600080fd5b50565b6000813590506111618161113b565b92915050565b60006020828403121561117d5761117c61112c565b5b600061118b84828501611152565b91505092915050565b61119d81611131565b82525050565b60006020820190506111b86000830184611194565b92915050565b6000806000606084860312156111d7576111d661112c565b5b60006111e586828701611152565b93505060206111f686828701611152565b925050604061120786828701611152565b9150509250925092565b60006040820190506112266000830185611194565b6112336020830184611194565b9392505050565b600073ffffffffffffffffffffffffffffffffffffffff82169050919050565b60006112658261123a565b9050919050565b6112758161125a565b82525050565b6000602082019050611290600083018461126c565b92915050565b600080604083850312156112ad576112ac61112c565b5b60006112bb85828601611152565b92505060206112cc85828601611152565b9150509250929050565b6112df8161125a565b81146112ea57600080fd5b50565b6000813590506112fc816112d6565b92915050565b6000602082840312156113185761131761112c565b5b6000611326848285016112ed565b91505092915050565b600082825260208201905092915050565b7f416d6f756e74206d757374206265203e20300000000000000000000000000000600082015250565b600061137660128361132f565b915061138182611340565b602082019050919050565b600060208201905081810360008301526113a581611369565b9050919050565b60006060820190506113c1600083018661126c565b6113ce602083018561126c565b6113db6040830184611194565b949350505050565b60008115159050919050565b6113f8816113e3565b811461140357600080fd5b50565b600081519050611415816113ef565b92915050565b6000602082840312156114315761143061112c565b5b600061143f84828501611406565b91505092915050565b600060408201905061145d600083018561126c565b61146a6020830184611194565b9392505050565b7f4e487b7100000000000000000000000000000000000000000000000000000000600052601160045260246000fd5b60006114ab82611131565b91506114b683611131565b92508282019050808211156114ce576114cd611471565b5b92915050565b60006114df82611131565b91506114ea83611131565b925082820390508181111561150257611501611471565b5b92915050565b600061151382611131565b915061151e83611131565b925082820261152c81611131565b9150828204841483151761154357611542611471565b5b5092915050565b7f4e487b7100000000000000000000000000000000000000000000000000000000600052601260045260246000fd5b600061158482611131565b915061158f83611131565b92508261159f5761159e61154a565b5b828204905092915050565b7f4e6f206c69717569646974790000000000000000000000000000000000000000600082015250565b60006115e0600c8361132f565b91506115eb826115aa565b602082019050919050565b6000602082019050818103600083015261160f816115d3565b9050919050565b7f496e73756666696369656e74206c69717569646974792062616c616e63650000600082015250565b600061164c601e8361132f565b915061165782611616565b602082019050919050565b6000602082019050818103600083015261167b8161163f565b9050919050565b60006060820190506116976000830186611194565b6116a46020830185611194565b6116b16040830184611194565b949350505050565b7f416d6f756e7473206d757374206265203e203000000000000000000000000000600082015250565b60006116ef60138361132f565b91506116fa826116b9565b602082019050919050565b6000602082019050818103600083015261171e816116e2565b9050919050565b7f496e73756666696369656e74206c6971756964697479206d696e746564000000600082015250565b600061175b601d8361132f565b915061176682611725565b602082019050919050565b6000602082019050818103600083015261178a8161174e565b905091905056fea2646970667358221220abf24816ad2cdcba6934bb23385d0ed0052905905a226515679fdcbbe4d3306064736f6c63430008130033",
  "linkReferences": {},
  "deployedLinkReferences": {}
}